{
	"data": {
		"bytecode": {
			"linkReferences": {},
			"object": "6080604052348015600e575f80fd5b506101b18061001c5f395ff3fe608060405234801561000f575f80fd5b5060043610610034575f3560e01c806334372baa14610038578063a2d6de5e14610057575b5f80fd5b610040610073565b60405161004e9291906100e8565b60405180910390f35b610071600480360381019061006c919061013d565b610099565b005b5f805f60019054906101000a900460ff165f8054906101000a900460ff16915091509091565b815f60016101000a81548160ff021916908315150217905550805f806101000a81548160ff0219169083151502179055505050565b5f8115159050919050565b6100e2816100ce565b82525050565b5f6040820190506100fb5f8301856100d9565b61010860208301846100d9565b9392505050565b5f80fd5b61011c816100ce565b8114610126575f80fd5b50565b5f8135905061013781610113565b92915050565b5f80604083850312156101535761015261010f565b5b5f61016085828601610129565b925050602061017185828601610129565b915050925092905056fea26469706673582212200bc37d69254ebfc6a48dc931639b6efc72fc9dd7f6d41af7970b999a763bdd9264736f6c63430008190033",
			"opcodes": "PUSH1 0x80 PUSH1 0x40 MSTORE CALLVALUE DUP1 ISZERO PUSH1 0xE JUMPI PUSH0 DUP1 REVERT JUMPDEST POP PUSH2 0x1B1 DUP1 PUSH2 0x1C PUSH0 CODECOPY PUSH0 RETURN INVALID PUSH1 0x80 PUSH1 0x40 MSTORE CALLVALUE DUP1 ISZERO PUSH2 0xF JUMPI PUSH0 DUP1 REVERT JUMPDEST POP PUSH1 0x4 CALLDATASIZE LT PUSH2 0x34 JUMPI PUSH0 CALLDATALOAD PUSH1 0xE0 SHR DUP1 PUSH4 0x34372BAA EQ PUSH2 0x38 JUMPI DUP1 PUSH4 0xA2D6DE5E EQ PUSH2 0x57 JUMPI JUMPDEST PUSH0 DUP1 REVERT JUMPDEST PUSH2 0x40 PUSH2 0x73 JUMP JUMPDEST PUSH1 0x40 MLOAD PUSH2 0x4E SWAP3 SWAP2 SWAP1 PUSH2 0xE8 JUMP JUMPDEST PUSH1 0x40 MLOAD DUP1 SWAP2 SUB SWAP1 RETURN JUMPDEST PUSH2 0x71 PUSH1 0x4 DUP1 CALLDATASIZE SUB DUP2 ADD SWAP1 PUSH2 0x6C SWAP2 SWAP1 PUSH2 0x13D JUMP JUMPDEST PUSH2 0x99 JUMP JUMPDEST STOP JUMPDEST PUSH0 DUP1 PUSH0 PUSH1 0x1 SWAP1 SLOAD SWAP1 PUSH2 0x100 EXP SWAP1 DIV PUSH1 0xFF AND PUSH0 DUP1 SLOAD SWAP1 PUSH2 0x100 EXP SWAP1 DIV PUSH1 0xFF AND SWAP2 POP SWAP2 POP SWAP1 SWAP2 JUMP JUMPDEST DUP2 PUSH0 PUSH1 0x1 PUSH2 0x100 EXP DUP2 SLOAD DUP2 PUSH1 0xFF MUL NOT AND SWAP1 DUP4 ISZERO ISZERO MUL OR SWAP1 SSTORE POP DUP1 PUSH0 DUP1 PUSH2 0x100 EXP DUP2 SLOAD DUP2 PUSH1 0xFF MUL NOT AND SWAP1 DUP4 ISZERO ISZERO MUL OR SWAP1 SSTORE POP POP POP JUMP JUMPDEST PUSH0 DUP2 ISZERO ISZERO SWAP1 POP SWAP2 SWAP1 POP JUMP JUMPDEST PUSH2 0xE2 DUP2 PUSH2 0xCE JUMP JUMPDEST DUP3 MSTORE POP POP JUMP JUMPDEST PUSH0 PUSH1 0x40 DUP3 ADD SWAP1 POP PUSH2 0xFB PUSH0 DUP4 ADD DUP6 PUSH2 0xD9 JUMP JUMPDEST PUSH2 0x108 PUSH1 0x20 DUP4 ADD DUP5 PUSH2 0xD9 JUMP JUMPDEST SWAP4 SWAP3 POP POP POP JUMP JUMPDEST PUSH0 DUP1 REVERT JUMPDEST PUSH2 0x11C DUP2 PUSH2 0xCE JUMP JUMPDEST DUP2 EQ PUSH2 0x126 JUMPI PUSH0 DUP1 REVERT JUMPDEST POP JUMP JUMPDEST PUSH0 DUP2 CALLDATALOAD SWAP1 POP PUSH2 0x137 DUP2 PUSH2 0x113 JUMP JUMPDEST SWAP3 SWAP2 POP POP JUMP JUMPDEST PUSH0 DUP1 PUSH1 0x40 DUP4 DUP6 SUB SLT ISZERO PUSH2 0x153 JUMPI PUSH2 0x152 PUSH2 0x10F JUMP JUMPDEST JUMPDEST PUSH0 PUSH2 0x160 DUP6 DUP3 DUP7 ADD PUSH2 0x129 JUMP JUMPDEST SWAP3 POP POP PUSH1 0x20 PUSH2 0x171 DUP6 DUP3 DUP7 ADD PUSH2 0x129 JUMP JUMPDEST SWAP2 POP POP SWAP3 POP SWAP3 SWAP1 POP JUMP INVALID LOG2 PUSH5 0x6970667358 0x22 SLT KECCAK256 SIGNEXTEND 0xC3 PUSH30 0x69254EBFC6A48DC931639B6EFC72FC9DD7F6D41AF7970B999A763BDD9264 PUSH20 0x6F6C634300081900330000000000000000000000 "
		},
		"gasEstimates": {
			"creation": {
				"codeDepositCost": "86600",
				"executionCost": "133",
				"totalCost": "86733"
			},
			"external": {
				"getOperationStatus()": "infinite",
				"setOperations(bool,bool)": "infinite"
			}
		},
		"methodIdentifiers": {
			"getOperationStatus()": "34372baa",
			"setOperations(bool,bool)": "a2d6de5e"
		}
	},
	"abi": [
		{
			"inputs": [],
			"name": "getOperationStatus",
			"outputs": [
				{
					"internalType": "bool",
					"name": "_WL",
					"type": "bool"
				},
				{
					"internalType": "bool",
					"name": "_Public",
					"type": "bool"
				}
			],
			"stateMutability": "view",
			"type": "function"
		},
		{
			"inputs": [
				{
					"internalType": "bool",
					"name": "_wl",
					"type": "bool"
				},
				{
					"internalType": "bool",
					"name": "_public",
					"type": "bool"
				}
			],
			"name": "setOperations",
			"outputs": [],
			"stateMutability": "nonpayable",
			"type": "function"
		}
	]
}