{
	"data": {
		"bytecode": {
			"linkReferences": {},
			"object": "60806040526005600255600a6003553480156018575f80fd5b5061081c806100265f395ff3fe608060405260043610610054575f3560e01c80630387da42146100585780637fd6f15c14610082578063ba1a681f146100ac578063d94f44f1146100d6578063e55857cf146100f2578063f1cf64091461012e575b5f80fd5b348015610063575f80fd5b5061006c610158565b60405161007991906103a6565b60405180910390f35b34801561008d575f80fd5b5061009661015d565b6040516100a391906103a6565b60405180910390f35b3480156100b7575f80fd5b506100c0610163565b6040516100cd91906103a6565b60405180910390f35b6100f060048036038101906100eb919061041d565b610169565b005b3480156100fd575f80fd5b5061011860048036038101906101139190610485565b610356565b6040516101259190610559565b60405180910390f35b348015610139575f80fd5b50610142610388565b60405161014f91906103a6565b60405180910390f35b5f5481565b60025481565b60035481565b5f805411156102c5575f3490505f60035460646002548461018a91906105a6565b6101949190610614565b61019e9190610614565b90505f81836101ad9190610644565b9050804710156101f2576040517f08c379a00000000000000000000000000000000000000000000000000000000081526004016101e9906106f7565b60405180910390fd5b8473ffffffffffffffffffffffffffffffffffffffff166108fc8290811502906040515f60405180830381858888f19350505050158015610235573d5f803e3d5ffd5b5081471015610279576040517f08c379a000000000000000000000000000000000000000000000000000000000815260040161027090610785565b60405180910390fd5b8373ffffffffffffffffffffffffffffffffffffffff166108fc8390811502906040515f60405180830381858888f193505050501580156102bc573d5f803e3d5ffd5b50505050610352565b5f3490508047101561030c576040517f08c379a000000000000000000000000000000000000000000000000000000000815260040161030390610785565b60405180910390fd5b8173ffffffffffffffffffffffffffffffffffffffff166108fc8290811502906040515f60405180830381858888f1935050505015801561034f573d5f803e3d5ffd5b50505b5050565b60608484848460405160200161036f94939291906107a3565b6040516020818303038152906040529050949350505050565b60015481565b5f819050919050565b6103a08161038e565b82525050565b5f6020820190506103b95f830184610397565b92915050565b5f80fd5b5f73ffffffffffffffffffffffffffffffffffffffff82169050919050565b5f6103ec826103c3565b9050919050565b6103fc816103e2565b8114610406575f80fd5b50565b5f81359050610417816103f3565b92915050565b5f8060408385031215610433576104326103bf565b5b5f61044085828601610409565b925050602061045185828601610409565b9150509250929050565b6104648161038e565b811461046e575f80fd5b50565b5f8135905061047f8161045b565b92915050565b5f805f806080858703121561049d5761049c6103bf565b5b5f6104aa87828801610471565b94505060206104bb87828801610471565b93505060406104cc87828801610471565b92505060606104dd87828801610471565b91505092959194509250565b5f81519050919050565b5f82825260208201905092915050565b8281835e5f83830152505050565b5f601f19601f8301169050919050565b5f61052b826104e9565b61053581856104f3565b9350610545818560208601610503565b61054e81610511565b840191505092915050565b5f6020820190508181035f8301526105718184610521565b905092915050565b7f4e487b71000000000000000000000000000000000000000000000000000000005f52601160045260245ffd5b5f6105b08261038e565b91506105bb8361038e565b92508282026105c98161038e565b915082820484148315176105e0576105df610579565b5b5092915050565b7f4e487b71000000000000000000000000000000000000000000000000000000005f52601260045260245ffd5b5f61061e8261038e565b91506106298361038e565b925082610639576106386105e7565b5b828204905092915050565b5f61064e8261038e565b91506106598361038e565b925082820390508181111561067157610670610579565b5b92915050565b5f82825260208201905092915050565b7f496e73756666696369656e742062616c616e636520746f2073656e64207468655f8201527f206669727374207472616e73616374696f6e0000000000000000000000000000602082015250565b5f6106e1603283610677565b91506106ec82610687565b604082019050919050565b5f6020820190508181035f83015261070e816106d5565b9050919050565b7f496e73756666696369656e742062616c616e636520746f2073656e64207468655f8201527f207365636f6e64207472616e73616374696f6e00000000000000000000000000602082015250565b5f61076f603383610677565b915061077a82610715565b604082019050919050565b5f6020820190508181035f83015261079c81610763565b9050919050565b5f6080820190506107b65f830187610397565b6107c36020830186610397565b6107d06040830185610397565b6107dd6060830184610397565b9594505050505056fea2646970667358221220eb1492081d533cc7ff45ddc2dca0e5e1e8aaf82f7cd2985bba114c336b574a3e64736f6c63430008190033",
			"opcodes": "PUSH1 0x80 PUSH1 0x40 MSTORE PUSH1 0x5 PUSH1 0x2 SSTORE PUSH1 0xA PUSH1 0x3 SSTORE CALLVALUE DUP1 ISZERO PUSH1 0x18 JUMPI PUSH0 DUP1 REVERT JUMPDEST POP PUSH2 0x81C DUP1 PUSH2 0x26 PUSH0 CODECOPY PUSH0 RETURN INVALID PUSH1 0x80 PUSH1 0x40 MSTORE PUSH1 0x4 CALLDATASIZE LT PUSH2 0x54 JUMPI PUSH0 CALLDATALOAD PUSH1 0xE0 SHR DUP1 PUSH4 0x387DA42 EQ PUSH2 0x58 JUMPI DUP1 PUSH4 0x7FD6F15C EQ PUSH2 0x82 JUMPI DUP1 PUSH4 0xBA1A681F EQ PUSH2 0xAC JUMPI DUP1 PUSH4 0xD94F44F1 EQ PUSH2 0xD6 JUMPI DUP1 PUSH4 0xE55857CF EQ PUSH2 0xF2 JUMPI DUP1 PUSH4 0xF1CF6409 EQ PUSH2 0x12E JUMPI JUMPDEST PUSH0 DUP1 REVERT JUMPDEST CALLVALUE DUP1 ISZERO PUSH2 0x63 JUMPI PUSH0 DUP1 REVERT JUMPDEST POP PUSH2 0x6C PUSH2 0x158 JUMP JUMPDEST PUSH1 0x40 MLOAD PUSH2 0x79 SWAP2 SWAP1 PUSH2 0x3A6 JUMP JUMPDEST PUSH1 0x40 MLOAD DUP1 SWAP2 SUB SWAP1 RETURN JUMPDEST CALLVALUE DUP1 ISZERO PUSH2 0x8D JUMPI PUSH0 DUP1 REVERT JUMPDEST POP PUSH2 0x96 PUSH2 0x15D JUMP JUMPDEST PUSH1 0x40 MLOAD PUSH2 0xA3 SWAP2 SWAP1 PUSH2 0x3A6 JUMP JUMPDEST PUSH1 0x40 MLOAD DUP1 SWAP2 SUB SWAP1 RETURN JUMPDEST CALLVALUE DUP1 ISZERO PUSH2 0xB7 JUMPI PUSH0 DUP1 REVERT JUMPDEST POP PUSH2 0xC0 PUSH2 0x163 JUMP JUMPDEST PUSH1 0x40 MLOAD PUSH2 0xCD SWAP2 SWAP1 PUSH2 0x3A6 JUMP JUMPDEST PUSH1 0x40 MLOAD DUP1 SWAP2 SUB SWAP1 RETURN JUMPDEST PUSH2 0xF0 PUSH1 0x4 DUP1 CALLDATASIZE SUB DUP2 ADD SWAP1 PUSH2 0xEB SWAP2 SWAP1 PUSH2 0x41D JUMP JUMPDEST PUSH2 0x169 JUMP JUMPDEST STOP JUMPDEST CALLVALUE DUP1 ISZERO PUSH2 0xFD JUMPI PUSH0 DUP1 REVERT JUMPDEST POP PUSH2 0x118 PUSH1 0x4 DUP1 CALLDATASIZE SUB DUP2 ADD SWAP1 PUSH2 0x113 SWAP2 SWAP1 PUSH2 0x485 JUMP JUMPDEST PUSH2 0x356 JUMP JUMPDEST PUSH1 0x40 MLOAD PUSH2 0x125 SWAP2 SWAP1 PUSH2 0x559 JUMP JUMPDEST PUSH1 0x40 MLOAD DUP1 SWAP2 SUB SWAP1 RETURN JUMPDEST CALLVALUE DUP1 ISZERO PUSH2 0x139 JUMPI PUSH0 DUP1 REVERT JUMPDEST POP PUSH2 0x142 PUSH2 0x388 JUMP JUMPDEST PUSH1 0x40 MLOAD PUSH2 0x14F SWAP2 SWAP1 PUSH2 0x3A6 JUMP JUMPDEST PUSH1 0x40 MLOAD DUP1 SWAP2 SUB SWAP1 RETURN JUMPDEST PUSH0 SLOAD DUP2 JUMP JUMPDEST PUSH1 0x2 SLOAD DUP2 JUMP JUMPDEST PUSH1 0x3 SLOAD DUP2 JUMP JUMPDEST PUSH0 DUP1 SLOAD GT ISZERO PUSH2 0x2C5 JUMPI PUSH0 CALLVALUE SWAP1 POP PUSH0 PUSH1 0x3 SLOAD PUSH1 0x64 PUSH1 0x2 SLOAD DUP5 PUSH2 0x18A SWAP2 SWAP1 PUSH2 0x5A6 JUMP JUMPDEST PUSH2 0x194 SWAP2 SWAP1 PUSH2 0x614 JUMP JUMPDEST PUSH2 0x19E SWAP2 SWAP1 PUSH2 0x614 JUMP JUMPDEST SWAP1 POP PUSH0 DUP2 DUP4 PUSH2 0x1AD SWAP2 SWAP1 PUSH2 0x644 JUMP JUMPDEST SWAP1 POP DUP1 SELFBALANCE LT ISZERO PUSH2 0x1F2 JUMPI PUSH1 0x40 MLOAD PUSH32 0x8C379A000000000000000000000000000000000000000000000000000000000 DUP2 MSTORE PUSH1 0x4 ADD PUSH2 0x1E9 SWAP1 PUSH2 0x6F7 JUMP JUMPDEST PUSH1 0x40 MLOAD DUP1 SWAP2 SUB SWAP1 REVERT JUMPDEST DUP5 PUSH20 0xFFFFFFFFFFFFFFFFFFFFFFFFFFFFFFFFFFFFFFFF AND PUSH2 0x8FC DUP3 SWAP1 DUP2 ISZERO MUL SWAP1 PUSH1 0x40 MLOAD PUSH0 PUSH1 0x40 MLOAD DUP1 DUP4 SUB DUP2 DUP6 DUP9 DUP9 CALL SWAP4 POP POP POP POP ISZERO DUP1 ISZERO PUSH2 0x235 JUMPI RETURNDATASIZE PUSH0 DUP1 RETURNDATACOPY RETURNDATASIZE PUSH0 REVERT JUMPDEST POP DUP2 SELFBALANCE LT ISZERO PUSH2 0x279 JUMPI PUSH1 0x40 MLOAD PUSH32 0x8C379A000000000000000000000000000000000000000000000000000000000 DUP2 MSTORE PUSH1 0x4 ADD PUSH2 0x270 SWAP1 PUSH2 0x785 JUMP JUMPDEST PUSH1 0x40 MLOAD DUP1 SWAP2 SUB SWAP1 REVERT JUMPDEST DUP4 PUSH20 0xFFFFFFFFFFFFFFFFFFFFFFFFFFFFFFFFFFFFFFFF AND PUSH2 0x8FC DUP4 SWAP1 DUP2 ISZERO MUL SWAP1 PUSH1 0x40 MLOAD PUSH0 PUSH1 0x40 MLOAD DUP1 DUP4 SUB DUP2 DUP6 DUP9 DUP9 CALL SWAP4 POP POP POP POP ISZERO DUP1 ISZERO PUSH2 0x2BC JUMPI RETURNDATASIZE PUSH0 DUP1 RETURNDATACOPY RETURNDATASIZE PUSH0 REVERT JUMPDEST POP POP POP POP PUSH2 0x352 JUMP JUMPDEST PUSH0 CALLVALUE SWAP1 POP DUP1 SELFBALANCE LT ISZERO PUSH2 0x30C JUMPI PUSH1 0x40 MLOAD PUSH32 0x8C379A000000000000000000000000000000000000000000000000000000000 DUP2 MSTORE PUSH1 0x4 ADD PUSH2 0x303 SWAP1 PUSH2 0x785 JUMP JUMPDEST PUSH1 0x40 MLOAD DUP1 SWAP2 SUB SWAP1 REVERT JUMPDEST DUP2 PUSH20 0xFFFFFFFFFFFFFFFFFFFFFFFFFFFFFFFFFFFFFFFF AND PUSH2 0x8FC DUP3 SWAP1 DUP2 ISZERO MUL SWAP1 PUSH1 0x40 MLOAD PUSH0 PUSH1 0x40 MLOAD DUP1 DUP4 SUB DUP2 DUP6 DUP9 DUP9 CALL SWAP4 POP POP POP POP ISZERO DUP1 ISZERO PUSH2 0x34F JUMPI RETURNDATASIZE PUSH0 DUP1 RETURNDATACOPY RETURNDATASIZE PUSH0 REVERT JUMPDEST POP POP JUMPDEST POP POP JUMP JUMPDEST PUSH1 0x60 DUP5 DUP5 DUP5 DUP5 PUSH1 0x40 MLOAD PUSH1 0x20 ADD PUSH2 0x36F SWAP5 SWAP4 SWAP3 SWAP2 SWAP1 PUSH2 0x7A3 JUMP JUMPDEST PUSH1 0x40 MLOAD PUSH1 0x20 DUP2 DUP4 SUB SUB DUP2 MSTORE SWAP1 PUSH1 0x40 MSTORE SWAP1 POP SWAP5 SWAP4 POP POP POP POP JUMP JUMPDEST PUSH1 0x1 SLOAD DUP2 JUMP JUMPDEST PUSH0 DUP2 SWAP1 POP SWAP2 SWAP1 POP JUMP JUMPDEST PUSH2 0x3A0 DUP2 PUSH2 0x38E JUMP JUMPDEST DUP3 MSTORE POP POP JUMP JUMPDEST PUSH0 PUSH1 0x20 DUP3 ADD SWAP1 POP PUSH2 0x3B9 PUSH0 DUP4 ADD DUP5 PUSH2 0x397 JUMP JUMPDEST SWAP3 SWAP2 POP POP JUMP JUMPDEST PUSH0 DUP1 REVERT JUMPDEST PUSH0 PUSH20 0xFFFFFFFFFFFFFFFFFFFFFFFFFFFFFFFFFFFFFFFF DUP3 AND SWAP1 POP SWAP2 SWAP1 POP JUMP JUMPDEST PUSH0 PUSH2 0x3EC DUP3 PUSH2 0x3C3 JUMP JUMPDEST SWAP1 POP SWAP2 SWAP1 POP JUMP JUMPDEST PUSH2 0x3FC DUP2 PUSH2 0x3E2 JUMP JUMPDEST DUP2 EQ PUSH2 0x406 JUMPI PUSH0 DUP1 REVERT JUMPDEST POP JUMP JUMPDEST PUSH0 DUP2 CALLDATALOAD SWAP1 POP PUSH2 0x417 DUP2 PUSH2 0x3F3 JUMP JUMPDEST SWAP3 SWAP2 POP POP JUMP JUMPDEST PUSH0 DUP1 PUSH1 0x40 DUP4 DUP6 SUB SLT ISZERO PUSH2 0x433 JUMPI PUSH2 0x432 PUSH2 0x3BF JUMP JUMPDEST JUMPDEST PUSH0 PUSH2 0x440 DUP6 DUP3 DUP7 ADD PUSH2 0x409 JUMP JUMPDEST SWAP3 POP POP PUSH1 0x20 PUSH2 0x451 DUP6 DUP3 DUP7 ADD PUSH2 0x409 JUMP JUMPDEST SWAP2 POP POP SWAP3 POP SWAP3 SWAP1 POP JUMP JUMPDEST PUSH2 0x464 DUP2 PUSH2 0x38E JUMP JUMPDEST DUP2 EQ PUSH2 0x46E JUMPI PUSH0 DUP1 REVERT JUMPDEST POP JUMP JUMPDEST PUSH0 DUP2 CALLDATALOAD SWAP1 POP PUSH2 0x47F DUP2 PUSH2 0x45B JUMP JUMPDEST SWAP3 SWAP2 POP POP JUMP JUMPDEST PUSH0 DUP1 PUSH0 DUP1 PUSH1 0x80 DUP6 DUP8 SUB SLT ISZERO PUSH2 0x49D JUMPI PUSH2 0x49C PUSH2 0x3BF JUMP JUMPDEST JUMPDEST PUSH0 PUSH2 0x4AA DUP8 DUP3 DUP9 ADD PUSH2 0x471 JUMP JUMPDEST SWAP5 POP POP PUSH1 0x20 PUSH2 0x4BB DUP8 DUP3 DUP9 ADD PUSH2 0x471 JUMP JUMPDEST SWAP4 POP POP PUSH1 0x40 PUSH2 0x4CC DUP8 DUP3 DUP9 ADD PUSH2 0x471 JUMP JUMPDEST SWAP3 POP POP PUSH1 0x60 PUSH2 0x4DD DUP8 DUP3 DUP9 ADD PUSH2 0x471 JUMP JUMPDEST SWAP2 POP POP SWAP3 SWAP6 SWAP2 SWAP5 POP SWAP3 POP JUMP JUMPDEST PUSH0 DUP2 MLOAD SWAP1 POP SWAP2 SWAP1 POP JUMP JUMPDEST PUSH0 DUP3 DUP3 MSTORE PUSH1 0x20 DUP3 ADD SWAP1 POP SWAP3 SWAP2 POP POP JUMP JUMPDEST DUP3 DUP2 DUP4 MCOPY PUSH0 DUP4 DUP4 ADD MSTORE POP POP POP JUMP JUMPDEST PUSH0 PUSH1 0x1F NOT PUSH1 0x1F DUP4 ADD AND SWAP1 POP SWAP2 SWAP1 POP JUMP JUMPDEST PUSH0 PUSH2 0x52B DUP3 PUSH2 0x4E9 JUMP JUMPDEST PUSH2 0x535 DUP2 DUP6 PUSH2 0x4F3 JUMP JUMPDEST SWAP4 POP PUSH2 0x545 DUP2 DUP6 PUSH1 0x20 DUP7 ADD PUSH2 0x503 JUMP JUMPDEST PUSH2 0x54E DUP2 PUSH2 0x511 JUMP JUMPDEST DUP5 ADD SWAP2 POP POP SWAP3 SWAP2 POP POP JUMP JUMPDEST PUSH0 PUSH1 0x20 DUP3 ADD SWAP1 POP DUP2 DUP2 SUB PUSH0 DUP4 ADD MSTORE PUSH2 0x571 DUP2 DUP5 PUSH2 0x521 JUMP JUMPDEST SWAP1 POP SWAP3 SWAP2 POP POP JUMP JUMPDEST PUSH32 0x4E487B7100000000000000000000000000000000000000000000000000000000 PUSH0 MSTORE PUSH1 0x11 PUSH1 0x4 MSTORE PUSH1 0x24 PUSH0 REVERT JUMPDEST PUSH0 PUSH2 0x5B0 DUP3 PUSH2 0x38E JUMP JUMPDEST SWAP2 POP PUSH2 0x5BB DUP4 PUSH2 0x38E JUMP JUMPDEST SWAP3 POP DUP3 DUP3 MUL PUSH2 0x5C9 DUP2 PUSH2 0x38E JUMP JUMPDEST SWAP2 POP DUP3 DUP3 DIV DUP5 EQ DUP4 ISZERO OR PUSH2 0x5E0 JUMPI PUSH2 0x5DF PUSH2 0x579 JUMP JUMPDEST JUMPDEST POP SWAP3 SWAP2 POP POP JUMP JUMPDEST PUSH32 0x4E487B7100000000000000000000000000000000000000000000000000000000 PUSH0 MSTORE PUSH1 0x12 PUSH1 0x4 MSTORE PUSH1 0x24 PUSH0 REVERT JUMPDEST PUSH0 PUSH2 0x61E DUP3 PUSH2 0x38E JUMP JUMPDEST SWAP2 POP PUSH2 0x629 DUP4 PUSH2 0x38E JUMP JUMPDEST SWAP3 POP DUP3 PUSH2 0x639 JUMPI PUSH2 0x638 PUSH2 0x5E7 JUMP JUMPDEST JUMPDEST DUP3 DUP3 DIV SWAP1 POP SWAP3 SWAP2 POP POP JUMP JUMPDEST PUSH0 PUSH2 0x64E DUP3 PUSH2 0x38E JUMP JUMPDEST SWAP2 POP PUSH2 0x659 DUP4 PUSH2 0x38E JUMP JUMPDEST SWAP3 POP DUP3 DUP3 SUB SWAP1 POP DUP2 DUP2 GT ISZERO PUSH2 0x671 JUMPI PUSH2 0x670 PUSH2 0x579 JUMP JUMPDEST JUMPDEST SWAP3 SWAP2 POP POP JUMP JUMPDEST PUSH0 DUP3 DUP3 MSTORE PUSH1 0x20 DUP3 ADD SWAP1 POP SWAP3 SWAP2 POP POP JUMP JUMPDEST PUSH32 0x496E73756666696369656E742062616C616E636520746F2073656E6420746865 PUSH0 DUP3 ADD MSTORE PUSH32 0x206669727374207472616E73616374696F6E0000000000000000000000000000 PUSH1 0x20 DUP3 ADD MSTORE POP JUMP JUMPDEST PUSH0 PUSH2 0x6E1 PUSH1 0x32 DUP4 PUSH2 0x677 JUMP JUMPDEST SWAP2 POP PUSH2 0x6EC DUP3 PUSH2 0x687 JUMP JUMPDEST PUSH1 0x40 DUP3 ADD SWAP1 POP SWAP2 SWAP1 POP JUMP JUMPDEST PUSH0 PUSH1 0x20 DUP3 ADD SWAP1 POP DUP2 DUP2 SUB PUSH0 DUP4 ADD MSTORE PUSH2 0x70E DUP2 PUSH2 0x6D5 JUMP JUMPDEST SWAP1 POP SWAP2 SWAP1 POP JUMP JUMPDEST PUSH32 0x496E73756666696369656E742062616C616E636520746F2073656E6420746865 PUSH0 DUP3 ADD MSTORE PUSH32 0x207365636F6E64207472616E73616374696F6E00000000000000000000000000 PUSH1 0x20 DUP3 ADD MSTORE POP JUMP JUMPDEST PUSH0 PUSH2 0x76F PUSH1 0x33 DUP4 PUSH2 0x677 JUMP JUMPDEST SWAP2 POP PUSH2 0x77A DUP3 PUSH2 0x715 JUMP JUMPDEST PUSH1 0x40 DUP3 ADD SWAP1 POP SWAP2 SWAP1 POP JUMP JUMPDEST PUSH0 PUSH1 0x20 DUP3 ADD SWAP1 POP DUP2 DUP2 SUB PUSH0 DUP4 ADD MSTORE PUSH2 0x79C DUP2 PUSH2 0x763 JUMP JUMPDEST SWAP1 POP SWAP2 SWAP1 POP JUMP JUMPDEST PUSH0 PUSH1 0x80 DUP3 ADD SWAP1 POP PUSH2 0x7B6 PUSH0 DUP4 ADD DUP8 PUSH2 0x397 JUMP JUMPDEST PUSH2 0x7C3 PUSH1 0x20 DUP4 ADD DUP7 PUSH2 0x397 JUMP JUMPDEST PUSH2 0x7D0 PUSH1 0x40 DUP4 ADD DUP6 PUSH2 0x397 JUMP JUMPDEST PUSH2 0x7DD PUSH1 0x60 DUP4 ADD DUP5 PUSH2 0x397 JUMP JUMPDEST SWAP6 SWAP5 POP POP POP POP POP JUMP INVALID LOG2 PUSH5 0x6970667358 0x22 SLT KECCAK256 0xEB EQ SWAP3 ADDMOD SAR MSTORE8 EXTCODECOPY 0xC7 SELFDESTRUCT GASLIMIT 0xDD 0xC2 0xDC LOG0 0xE5 0xE1 0xE8 0xAA 0xF8 0x2F PUSH29 0xD2985BBA114C336B574A3E64736F6C6343000819003300000000000000 "
		},
		"gasEstimates": {
			"creation": {
				"codeDepositCost": "415200",
				"executionCost": "44659",
				"totalCost": "459859"
			},
			"external": {
				"_mintLimit()": "2513",
				"_mintPrice()": "2402",
				"distributeFunds(address,address)": "infinite",
				"encodedData(uint256,uint256,uint256,uint256)": "infinite",
				"feePercent()": "2425",
				"percentDecimal()": "2447"
			},
			"internal": {
				"setFeeCharges(uint256,uint256)": "infinite",
				"setMintPrice(uint256,uint256)": "infinite"
			}
		},
		"methodIdentifiers": {
			"_mintLimit()": "f1cf6409",
			"_mintPrice()": "0387da42",
			"distributeFunds(address,address)": "d94f44f1",
			"encodedData(uint256,uint256,uint256,uint256)": "e55857cf",
			"feePercent()": "7fd6f15c",
			"percentDecimal()": "ba1a681f"
		}
	},
	"abi": [
		{
			"inputs": [],
			"name": "_mintLimit",
			"outputs": [
				{
					"internalType": "uint256",
					"name": "",
					"type": "uint256"
				}
			],
			"stateMutability": "view",
			"type": "function"
		},
		{
			"inputs": [],
			"name": "_mintPrice",
			"outputs": [
				{
					"internalType": "uint256",
					"name": "",
					"type": "uint256"
				}
			],
			"stateMutability": "view",
			"type": "function"
		},
		{
			"inputs": [
				{
					"internalType": "address payable",
					"name": "recipient1",
					"type": "address"
				},
				{
					"internalType": "address payable",
					"name": "recipient2",
					"type": "address"
				}
			],
			"name": "distributeFunds",
			"outputs": [],
			"stateMutability": "payable",
			"type": "function"
		},
		{
			"inputs": [
				{
					"internalType": "uint256",
					"name": "_price",
					"type": "uint256"
				},
				{
					"internalType": "uint256",
					"name": "_limit",
					"type": "uint256"
				},
				{
					"internalType": "uint256",
					"name": "_feePercent",
					"type": "uint256"
				},
				{
					"internalType": "uint256",
					"name": "_percentDecimal",
					"type": "uint256"
				}
			],
			"name": "encodedData",
			"outputs": [
				{
					"internalType": "bytes",
					"name": "",
					"type": "bytes"
				}
			],
			"stateMutability": "pure",
			"type": "function"
		},
		{
			"inputs": [],
			"name": "feePercent",
			"outputs": [
				{
					"internalType": "uint256",
					"name": "",
					"type": "uint256"
				}
			],
			"stateMutability": "view",
			"type": "function"
		},
		{
			"inputs": [],
			"name": "percentDecimal",
			"outputs": [
				{
					"internalType": "uint256",
					"name": "",
					"type": "uint256"
				}
			],
			"stateMutability": "view",
			"type": "function"
		}
	]
}