{
	"data": {
		"bytecode": {
			"linkReferences": {},
			"object": "6080604052348015600e575f80fd5b5061036f8061001c5f395ff3fe608060405234801561000f575f80fd5b506004361061004a575f3560e01c80630387da421461004e578063ad3c4e961461006c578063e6731a4f1461009c578063f1cf6409146100b8575b5f80fd5b6100566100d6565b604051610063919061014d565b60405180910390f35b61008660048036038101906100819190610198565b6100db565b6040516100939190610246565b60405180910390f35b6100b660048036038101906100b191906102c7565b610107565b005b6100c061012f565b6040516100cd919061014d565b60405180910390f35b5f5481565b606082826040516020016100f0929190610312565b604051602081830303815290604052905092915050565b5f8083838101906101189190610198565b91509150815f819055508060018190555050505050565b60015481565b5f819050919050565b61014781610135565b82525050565b5f6020820190506101605f83018461013e565b92915050565b5f80fd5b5f80fd5b61017781610135565b8114610181575f80fd5b50565b5f813590506101928161016e565b92915050565b5f80604083850312156101ae576101ad610166565b5b5f6101bb85828601610184565b92505060206101cc85828601610184565b9150509250929050565b5f81519050919050565b5f82825260208201905092915050565b8281835e5f83830152505050565b5f601f19601f8301169050919050565b5f610218826101d6565b61022281856101e0565b93506102328185602086016101f0565b61023b816101fe565b840191505092915050565b5f6020820190508181035f83015261025e818461020e565b905092915050565b5f80fd5b5f80fd5b5f80fd5b5f8083601f84011261028757610286610266565b5b8235905067ffffffffffffffff8111156102a4576102a361026a565b5b6020830191508360018202830111156102c0576102bf61026e565b5b9250929050565b5f80602083850312156102dd576102dc610166565b5b5f83013567ffffffffffffffff8111156102fa576102f961016a565b5b61030685828601610272565b92509250509250929050565b5f6040820190506103255f83018561013e565b610332602083018461013e565b939250505056fea26469706673582212208d89ab8befefb6c633b48f356dda0fc6b325944f31837d4cdba08cee59f2713164736f6c63430008190033",
			"opcodes": "PUSH1 0x80 PUSH1 0x40 MSTORE CALLVALUE DUP1 ISZERO PUSH1 0xE JUMPI PUSH0 DUP1 REVERT JUMPDEST POP PUSH2 0x36F DUP1 PUSH2 0x1C PUSH0 CODECOPY PUSH0 RETURN INVALID PUSH1 0x80 PUSH1 0x40 MSTORE CALLVALUE DUP1 ISZERO PUSH2 0xF JUMPI PUSH0 DUP1 REVERT JUMPDEST POP PUSH1 0x4 CALLDATASIZE LT PUSH2 0x4A JUMPI PUSH0 CALLDATALOAD PUSH1 0xE0 SHR DUP1 PUSH4 0x387DA42 EQ PUSH2 0x4E JUMPI DUP1 PUSH4 0xAD3C4E96 EQ PUSH2 0x6C JUMPI DUP1 PUSH4 0xE6731A4F EQ PUSH2 0x9C JUMPI DUP1 PUSH4 0xF1CF6409 EQ PUSH2 0xB8 JUMPI JUMPDEST PUSH0 DUP1 REVERT JUMPDEST PUSH2 0x56 PUSH2 0xD6 JUMP JUMPDEST PUSH1 0x40 MLOAD PUSH2 0x63 SWAP2 SWAP1 PUSH2 0x14D JUMP JUMPDEST PUSH1 0x40 MLOAD DUP1 SWAP2 SUB SWAP1 RETURN JUMPDEST PUSH2 0x86 PUSH1 0x4 DUP1 CALLDATASIZE SUB DUP2 ADD SWAP1 PUSH2 0x81 SWAP2 SWAP1 PUSH2 0x198 JUMP JUMPDEST PUSH2 0xDB JUMP JUMPDEST PUSH1 0x40 MLOAD PUSH2 0x93 SWAP2 SWAP1 PUSH2 0x246 JUMP JUMPDEST PUSH1 0x40 MLOAD DUP1 SWAP2 SUB SWAP1 RETURN JUMPDEST PUSH2 0xB6 PUSH1 0x4 DUP1 CALLDATASIZE SUB DUP2 ADD SWAP1 PUSH2 0xB1 SWAP2 SWAP1 PUSH2 0x2C7 JUMP JUMPDEST PUSH2 0x107 JUMP JUMPDEST STOP JUMPDEST PUSH2 0xC0 PUSH2 0x12F JUMP JUMPDEST PUSH1 0x40 MLOAD PUSH2 0xCD SWAP2 SWAP1 PUSH2 0x14D JUMP JUMPDEST PUSH1 0x40 MLOAD DUP1 SWAP2 SUB SWAP1 RETURN JUMPDEST PUSH0 SLOAD DUP2 JUMP JUMPDEST PUSH1 0x60 DUP3 DUP3 PUSH1 0x40 MLOAD PUSH1 0x20 ADD PUSH2 0xF0 SWAP3 SWAP2 SWAP1 PUSH2 0x312 JUMP JUMPDEST PUSH1 0x40 MLOAD PUSH1 0x20 DUP2 DUP4 SUB SUB DUP2 MSTORE SWAP1 PUSH1 0x40 MSTORE SWAP1 POP SWAP3 SWAP2 POP POP JUMP JUMPDEST PUSH0 DUP1 DUP4 DUP4 DUP2 ADD SWAP1 PUSH2 0x118 SWAP2 SWAP1 PUSH2 0x198 JUMP JUMPDEST SWAP2 POP SWAP2 POP DUP2 PUSH0 DUP2 SWAP1 SSTORE POP DUP1 PUSH1 0x1 DUP2 SWAP1 SSTORE POP POP POP POP POP JUMP JUMPDEST PUSH1 0x1 SLOAD DUP2 JUMP JUMPDEST PUSH0 DUP2 SWAP1 POP SWAP2 SWAP1 POP JUMP JUMPDEST PUSH2 0x147 DUP2 PUSH2 0x135 JUMP JUMPDEST DUP3 MSTORE POP POP JUMP JUMPDEST PUSH0 PUSH1 0x20 DUP3 ADD SWAP1 POP PUSH2 0x160 PUSH0 DUP4 ADD DUP5 PUSH2 0x13E JUMP JUMPDEST SWAP3 SWAP2 POP POP JUMP JUMPDEST PUSH0 DUP1 REVERT JUMPDEST PUSH0 DUP1 REVERT JUMPDEST PUSH2 0x177 DUP2 PUSH2 0x135 JUMP JUMPDEST DUP2 EQ PUSH2 0x181 JUMPI PUSH0 DUP1 REVERT JUMPDEST POP JUMP JUMPDEST PUSH0 DUP2 CALLDATALOAD SWAP1 POP PUSH2 0x192 DUP2 PUSH2 0x16E JUMP JUMPDEST SWAP3 SWAP2 POP POP JUMP JUMPDEST PUSH0 DUP1 PUSH1 0x40 DUP4 DUP6 SUB SLT ISZERO PUSH2 0x1AE JUMPI PUSH2 0x1AD PUSH2 0x166 JUMP JUMPDEST JUMPDEST PUSH0 PUSH2 0x1BB DUP6 DUP3 DUP7 ADD PUSH2 0x184 JUMP JUMPDEST SWAP3 POP POP PUSH1 0x20 PUSH2 0x1CC DUP6 DUP3 DUP7 ADD PUSH2 0x184 JUMP JUMPDEST SWAP2 POP POP SWAP3 POP SWAP3 SWAP1 POP JUMP JUMPDEST PUSH0 DUP2 MLOAD SWAP1 POP SWAP2 SWAP1 POP JUMP JUMPDEST PUSH0 DUP3 DUP3 MSTORE PUSH1 0x20 DUP3 ADD SWAP1 POP SWAP3 SWAP2 POP POP JUMP JUMPDEST DUP3 DUP2 DUP4 MCOPY PUSH0 DUP4 DUP4 ADD MSTORE POP POP POP JUMP JUMPDEST PUSH0 PUSH1 0x1F NOT PUSH1 0x1F DUP4 ADD AND SWAP1 POP SWAP2 SWAP1 POP JUMP JUMPDEST PUSH0 PUSH2 0x218 DUP3 PUSH2 0x1D6 JUMP JUMPDEST PUSH2 0x222 DUP2 DUP6 PUSH2 0x1E0 JUMP JUMPDEST SWAP4 POP PUSH2 0x232 DUP2 DUP6 PUSH1 0x20 DUP7 ADD PUSH2 0x1F0 JUMP JUMPDEST PUSH2 0x23B DUP2 PUSH2 0x1FE JUMP JUMPDEST DUP5 ADD SWAP2 POP POP SWAP3 SWAP2 POP POP JUMP JUMPDEST PUSH0 PUSH1 0x20 DUP3 ADD SWAP1 POP DUP2 DUP2 SUB PUSH0 DUP4 ADD MSTORE PUSH2 0x25E DUP2 DUP5 PUSH2 0x20E JUMP JUMPDEST SWAP1 POP SWAP3 SWAP2 POP POP JUMP JUMPDEST PUSH0 DUP1 REVERT JUMPDEST PUSH0 DUP1 REVERT JUMPDEST PUSH0 DUP1 REVERT JUMPDEST PUSH0 DUP1 DUP4 PUSH1 0x1F DUP5 ADD SLT PUSH2 0x287 JUMPI PUSH2 0x286 PUSH2 0x266 JUMP JUMPDEST JUMPDEST DUP3 CALLDATALOAD SWAP1 POP PUSH8 0xFFFFFFFFFFFFFFFF DUP2 GT ISZERO PUSH2 0x2A4 JUMPI PUSH2 0x2A3 PUSH2 0x26A JUMP JUMPDEST JUMPDEST PUSH1 0x20 DUP4 ADD SWAP2 POP DUP4 PUSH1 0x1 DUP3 MUL DUP4 ADD GT ISZERO PUSH2 0x2C0 JUMPI PUSH2 0x2BF PUSH2 0x26E JUMP JUMPDEST JUMPDEST SWAP3 POP SWAP3 SWAP1 POP JUMP JUMPDEST PUSH0 DUP1 PUSH1 0x20 DUP4 DUP6 SUB SLT ISZERO PUSH2 0x2DD JUMPI PUSH2 0x2DC PUSH2 0x166 JUMP JUMPDEST JUMPDEST PUSH0 DUP4 ADD CALLDATALOAD PUSH8 0xFFFFFFFFFFFFFFFF DUP2 GT ISZERO PUSH2 0x2FA JUMPI PUSH2 0x2F9 PUSH2 0x16A JUMP JUMPDEST JUMPDEST PUSH2 0x306 DUP6 DUP3 DUP7 ADD PUSH2 0x272 JUMP JUMPDEST SWAP3 POP SWAP3 POP POP SWAP3 POP SWAP3 SWAP1 POP JUMP JUMPDEST PUSH0 PUSH1 0x40 DUP3 ADD SWAP1 POP PUSH2 0x325 PUSH0 DUP4 ADD DUP6 PUSH2 0x13E JUMP JUMPDEST PUSH2 0x332 PUSH1 0x20 DUP4 ADD DUP5 PUSH2 0x13E JUMP JUMPDEST SWAP4 SWAP3 POP POP POP JUMP INVALID LOG2 PUSH5 0x6970667358 0x22 SLT KECCAK256 DUP14 DUP10 0xAB DUP12 0xEF 0xEF 0xB6 0xC6 CALLER 0xB4 DUP16 CALLDATALOAD PUSH14 0xDA0FC6B325944F31837D4CDBA08C 0xEE MSIZE CALLCODE PUSH18 0x3164736F6C63430008190033000000000000 "
		},
		"gasEstimates": {
			"creation": {
				"codeDepositCost": "175800",
				"executionCost": "218",
				"totalCost": "176018"
			},
			"external": {
				"_mintLimit()": "2469",
				"_mintPrice()": "2402",
				"encodedData(uint256,uint256)": "infinite",
				"setMintPrice(bytes)": "infinite"
			}
		},
		"methodIdentifiers": {
			"_mintLimit()": "f1cf6409",
			"_mintPrice()": "0387da42",
			"encodedData(uint256,uint256)": "ad3c4e96",
			"setMintPrice(bytes)": "e6731a4f"
		}
	},
	"abi": [
		{
			"inputs": [],
			"name": "_mintLimit",
			"outputs": [
				{
					"internalType": "uint256",
					"name": "",
					"type": "uint256"
				}
			],
			"stateMutability": "view",
			"type": "function"
		},
		{
			"inputs": [],
			"name": "_mintPrice",
			"outputs": [
				{
					"internalType": "uint256",
					"name": "",
					"type": "uint256"
				}
			],
			"stateMutability": "view",
			"type": "function"
		},
		{
			"inputs": [
				{
					"internalType": "uint256",
					"name": "_price",
					"type": "uint256"
				},
				{
					"internalType": "uint256",
					"name": "_limit",
					"type": "uint256"
				}
			],
			"name": "encodedData",
			"outputs": [
				{
					"internalType": "bytes",
					"name": "",
					"type": "bytes"
				}
			],
			"stateMutability": "pure",
			"type": "function"
		},
		{
			"inputs": [
				{
					"internalType": "bytes",
					"name": "_data",
					"type": "bytes"
				}
			],
			"name": "setMintPrice",
			"outputs": [],
			"stateMutability": "nonpayable",
			"type": "function"
		}
	]
}